:1000000000308A00282800000A108A100A1182078E
:100010003F3406345B344F3466346D347D340734FA
:100020007F346F342230840083130008031925289D
:100030000230F800F701F70B1B28F80B1A2897304D
:10004000F700F70B2128800B18288A110A125A286A
:10005000840183131F308305831603170908C039F1
:10006000890003131F129F120030031788008312A8
:1000700087018801890100308316031385008600FB
:1000800085010830831285000130A0002008093C5A
:10009000031C5D2820080420F800A100A109831694
:1000A00086018312210886000230A007A100FA30E1
:0E00B000A2001228A10B5728462844286300FE
:04400E00F22CFF3F52
:00000001FF
;PIC16F887
